{
  "contractName": "MyTokenSale",
  "abi": [
    {
      "inputs": [
        {
          "internalType": "uint256",
          "name": "_rate",
          "type": "uint256"
        },
        {
          "internalType": "address payable",
          "name": "_wallet",
          "type": "address"
        },
        {
          "internalType": "contract IERC20",
          "name": "_token",
          "type": "address"
        },
        {
          "internalType": "uint256",
          "name": "_softCap",
          "type": "uint256"
        },
        {
          "internalType": "uint256",
          "name": "_hardCap",
          "type": "uint256"
        }
      ],
      "stateMutability": "nonpayable",
      "type": "constructor"
    },
    {
      "anonymous": false,
      "inputs": [
        {
          "indexed": true,
          "internalType": "address",
          "name": "purchaser",
          "type": "address"
        },
        {
          "indexed": true,
          "internalType": "address",
          "name": "beneficiary",
          "type": "address"
        },
        {
          "indexed": false,
          "internalType": "uint256",
          "name": "value",
          "type": "uint256"
        },
        {
          "indexed": false,
          "internalType": "uint256",
          "name": "amount",
          "type": "uint256"
        }
      ],
      "name": "TokensPurchased",
      "type": "event"
    },
    {
      "inputs": [
        {
          "internalType": "address",
          "name": "beneficiary",
          "type": "address"
        }
      ],
      "name": "buyTokens",
      "outputs": [],
      "stateMutability": "payable",
      "type": "function",
      "payable": true
    },
    {
      "inputs": [],
      "name": "hardCap",
      "outputs": [
        {
          "internalType": "uint256",
          "name": "",
          "type": "uint256"
        }
      ],
      "stateMutability": "view",
      "type": "function",
      "constant": true
    },
    {
      "inputs": [],
      "name": "rate",
      "outputs": [
        {
          "internalType": "uint256",
          "name": "",
          "type": "uint256"
        }
      ],
      "stateMutability": "view",
      "type": "function",
      "constant": true
    },
    {
      "inputs": [],
      "name": "softCap",
      "outputs": [
        {
          "internalType": "uint256",
          "name": "",
          "type": "uint256"
        }
      ],
      "stateMutability": "view",
      "type": "function",
      "constant": true
    },
    {
      "inputs": [],
      "name": "token",
      "outputs": [
        {
          "internalType": "contract IERC20",
          "name": "",
          "type": "address"
        }
      ],
      "stateMutability": "view",
      "type": "function",
      "constant": true
    },
    {
      "inputs": [],
      "name": "wallet",
      "outputs": [
        {
          "internalType": "address payable",
          "name": "",
          "type": "address"
        }
      ],
      "stateMutability": "view",
      "type": "function",
      "constant": true
    },
    {
      "inputs": [],
      "name": "weiRaised",
      "outputs": [
        {
          "internalType": "uint256",
          "name": "",
          "type": "uint256"
        }
      ],
      "stateMutability": "view",
      "type": "function",
      "constant": true
    },
    {
      "stateMutability": "payable",
      "type": "receive",
      "payable": true
    }
  ],
  "bytecode": "0x60806040523480156200001157600080fd5b5060405162001575380380620015758339818101604052810190620000379190620002aa565b670de0b6b3a76400008484848460016000819055506000851162000092576040517f08c379a00000000000000000000000000000000000000000000000000000000081526004016200008990620003f0565b60405180910390fd5b60008211620000d8576040517f08c379a0000000000000000000000000000000000000000000000000000000008152600401620000cf9062000412565b60405180910390fd5b600073ffffffffffffffffffffffffffffffffffffffff168473ffffffffffffffffffffffffffffffffffffffff1614156200014b576040517f08c379a0000000000000000000000000000000000000000000000000000000008152600401620001429062000434565b60405180910390fd5b600073ffffffffffffffffffffffffffffffffffffffff168373ffffffffffffffffffffffffffffffffffffffff161415620001be576040517f08c379a0000000000000000000000000000000000000000000000000000000008152600401620001b590620003ce565b60405180910390fd5b8460058190555083600260006101000a81548173ffffffffffffffffffffffffffffffffffffffff021916908373ffffffffffffffffffffffffffffffffffffffff16021790555082600160006101000a81548173ffffffffffffffffffffffffffffffffffffffff021916908373ffffffffffffffffffffffffffffffffffffffff16021790555081600381905550806004819055505050505050505050505062000610565b6000815190506200027681620005c2565b92915050565b6000815190506200028d81620005dc565b92915050565b600081519050620002a481620005f6565b92915050565b600080600080600060a08688031215620002c957620002c8620004cd565b5b6000620002d98882890162000293565b9550506020620002ec8882890162000265565b9450506040620002ff888289016200027c565b9350506060620003128882890162000293565b9250506080620003258882890162000293565b9150509295509295909350565b60006200034160248362000456565b91506200034e82620004d2565b604082019050919050565b60006200036860148362000456565b9150620003758262000521565b602082019050919050565b60006200038f60188362000456565b91506200039c826200054a565b602082019050919050565b6000620003b660258362000456565b9150620003c38262000573565b604082019050919050565b60006020820190508181036000830152620003e98162000332565b9050919050565b600060208201905081810360008301526200040b8162000359565b9050919050565b600060208201905081810360008301526200042d8162000380565b9050919050565b600060208201905081810360008301526200044f81620003a7565b9050919050565b600082825260208201905092915050565b60006200047482620004a3565b9050919050565b60006200048882620004a3565b9050919050565b60006200049c8262000467565b9050919050565b600073ffffffffffffffffffffffffffffffffffffffff82169050919050565b6000819050919050565b600080fd5b7f43726f776473616c653a20746f6b656e20697320746865207a65726f2061646460008201527f7265737300000000000000000000000000000000000000000000000000000000602082015250565b7f43726f776473616c653a20726174652069732030000000000000000000000000600082015250565b7f43726f776473616c653a20686172642063617020697320300000000000000000600082015250565b7f43726f776473616c653a2077616c6c657420697320746865207a65726f20616460008201527f6472657373000000000000000000000000000000000000000000000000000000602082015250565b620005cd816200047b565b8114620005d957600080fd5b50565b620005e7816200048f565b8114620005f357600080fd5b50565b6200060181620004c3565b81146200060d57600080fd5b50565b610f5580620006206000396000f3fe6080604052600436106100745760003560e01c8063906a26e01161004e578063906a26e014610111578063ec8ac4d81461013c578063fb86a40414610158578063fc0c546a146101835761008b565b80632c4e722e146100905780634042b66f146100bb578063521eb273146100e65761008b565b3661008b576100896100846101ae565b6101b6565b005b600080fd5b34801561009c57600080fd5b506100a56102dc565b6040516100b29190610b5b565b60405180910390f35b3480156100c757600080fd5b506100d06102e2565b6040516100dd9190610b5b565b60405180910390f35b3480156100f257600080fd5b506100fb6102e8565b6040516101089190610a1a565b60405180910390f35b34801561011d57600080fd5b5061012661030e565b6040516101339190610b5b565b60405180910390f35b61015660048036038101906101519190610831565b6101b6565b005b34801561016457600080fd5b5061016d610314565b60405161017a9190610b5b565b60405180910390f35b34801561018f57600080fd5b5061019861031a565b6040516101a59190610a5e565b60405180910390f35b600033905090565b600260005414156101fc576040517f08c379a00000000000000000000000000000000000000000000000000000000081526004016101f390610b1b565b60405180910390fd5b600260008190555060003490506102138282610340565b600061021e826103f8565b90506102358260065461041690919063ffffffff16565b600681905550610245838261042c565b8273ffffffffffffffffffffffffffffffffffffffff166102646101ae565b73ffffffffffffffffffffffffffffffffffffffff167f6faf93231a456e552dbc9961f58d9713ee4f2e69d15f1975b050ef0911053a7b84846040516102ab929190610b76565b60405180910390a36102bd838361043a565b6102c561043e565b6102cf83836104a9565b5050600160008190555050565b60055481565b60065481565b600260009054906101000a900473ffffffffffffffffffffffffffffffffffffffff1681565b60035481565b60045481565b600160009054906101000a900473ffffffffffffffffffffffffffffffffffffffff1681565b600073ffffffffffffffffffffffffffffffffffffffff168273ffffffffffffffffffffffffffffffffffffffff1614156103b0576040517f08c379a00000000000000000000000000000000000000000000000000000000081526004016103a790610abb565b60405180910390fd5b60008114156103f4576040517f08c379a00000000000000000000000000000000000000000000000000000000081526004016103eb90610b3b565b60405180910390fd5b5050565b600061040f600554836104ad90919063ffffffff16565b9050919050565b600081836104249190610bd1565b905092915050565b61043682826104c3565b5050565b5050565b600260009054906101000a900473ffffffffffffffffffffffffffffffffffffffff1673ffffffffffffffffffffffffffffffffffffffff166108fc349081150290604051600060405180830381858888f193505050501580156104a6573d6000803e3d6000fd5b50565b5050565b600081836104bb9190610c27565b905092915050565b6105108282600160009054906101000a900473ffffffffffffffffffffffffffffffffffffffff1673ffffffffffffffffffffffffffffffffffffffff166105149092919063ffffffff16565b5050565b6105958363a9059cbb60e01b8484604051602401610533929190610a35565b604051602081830303815290604052907bffffffffffffffffffffffffffffffffffffffffffffffffffffffff19166020820180517bffffffffffffffffffffffffffffffffffffffffffffffffffffffff838183161783525050505061059a565b505050565b60006105fc826040518060400160405280602081526020017f5361666545524332303a206c6f772d6c6576656c2063616c6c206661696c65648152508573ffffffffffffffffffffffffffffffffffffffff166106619092919063ffffffff16565b905060008151111561065c578080602001905181019061061c919061085e565b61065b576040517f08c379a000000000000000000000000000000000000000000000000000000000815260040161065290610afb565b60405180910390fd5b5b505050565b60606106708484600085610679565b90509392505050565b6060824710156106be576040517f08c379a00000000000000000000000000000000000000000000000000000000081526004016106b590610a9b565b60405180910390fd5b6106c78561078d565b610706576040517f08c379a00000000000000000000000000000000000000000000000000000000081526004016106fd90610adb565b60405180910390fd5b6000808673ffffffffffffffffffffffffffffffffffffffff16858760405161072f9190610a03565b60006040518083038185875af1925050503d806000811461076c576040519150601f19603f3d011682016040523d82523d6000602084013e610771565b606091505b50915091506107818282866107a0565b92505050949350505050565b600080823b905060008111915050919050565b606083156107b057829050610800565b6000835111156107c35782518084602001fd5b816040517f08c379a00000000000000000000000000000000000000000000000000000000081526004016107f79190610a79565b60405180910390fd5b9392505050565b60008135905061081681610ef1565b92915050565b60008151905061082b81610f08565b92915050565b60006020828403121561084757610846610d73565b5b600061085584828501610807565b91505092915050565b60006020828403121561087457610873610d73565b5b60006108828482850161081c565b91505092915050565b61089481610c93565b82525050565b6108a381610c81565b82525050565b60006108b482610b9f565b6108be8185610bb5565b93506108ce818560208601610d11565b80840191505092915050565b6108e381610cdb565b82525050565b60006108f482610baa565b6108fe8185610bc0565b935061090e818560208601610d11565b61091781610d78565b840191505092915050565b600061092f602683610bc0565b915061093a82610d89565b604082019050919050565b6000610952602a83610bc0565b915061095d82610dd8565b604082019050919050565b6000610975601d83610bc0565b915061098082610e27565b602082019050919050565b6000610998602a83610bc0565b91506109a382610e50565b604082019050919050565b60006109bb601f83610bc0565b91506109c682610e9f565b602082019050919050565b60006109de601983610bc0565b91506109e982610ec8565b602082019050919050565b6109fd81610cd1565b82525050565b6000610a0f82846108a9565b915081905092915050565b6000602082019050610a2f600083018461088b565b92915050565b6000604082019050610a4a600083018561089a565b610a5760208301846109f4565b9392505050565b6000602082019050610a7360008301846108da565b92915050565b60006020820190508181036000830152610a9381846108e9565b905092915050565b60006020820190508181036000830152610ab481610922565b9050919050565b60006020820190508181036000830152610ad481610945565b9050919050565b60006020820190508181036000830152610af481610968565b9050919050565b60006020820190508181036000830152610b148161098b565b9050919050565b60006020820190508181036000830152610b34816109ae565b9050919050565b60006020820190508181036000830152610b54816109d1565b9050919050565b6000602082019050610b7060008301846109f4565b92915050565b6000604082019050610b8b60008301856109f4565b610b9860208301846109f4565b9392505050565b600081519050919050565b600081519050919050565b600081905092915050565b600082825260208201905092915050565b6000610bdc82610cd1565b9150610be783610cd1565b9250827fffffffffffffffffffffffffffffffffffffffffffffffffffffffffffffffff03821115610c1c57610c1b610d44565b5b828201905092915050565b6000610c3282610cd1565b9150610c3d83610cd1565b9250817fffffffffffffffffffffffffffffffffffffffffffffffffffffffffffffffff0483118215151615610c7657610c75610d44565b5b828202905092915050565b6000610c8c82610cb1565b9050919050565b6000610c9e82610cb1565b9050919050565b60008115159050919050565b600073ffffffffffffffffffffffffffffffffffffffff82169050919050565b6000819050919050565b6000610ce682610ced565b9050919050565b6000610cf882610cff565b9050919050565b6000610d0a82610cb1565b9050919050565b60005b83811015610d2f578082015181840152602081019050610d14565b83811115610d3e576000848401525b50505050565b7f4e487b7100000000000000000000000000000000000000000000000000000000600052601160045260246000fd5b600080fd5b6000601f19601f8301169050919050565b7f416464726573733a20696e73756666696369656e742062616c616e636520666f60008201527f722063616c6c0000000000000000000000000000000000000000000000000000602082015250565b7f43726f776473616c653a2062656e656669636961727920697320746865207a6560008201527f726f206164647265737300000000000000000000000000000000000000000000602082015250565b7f416464726573733a2063616c6c20746f206e6f6e2d636f6e7472616374000000600082015250565b7f5361666545524332303a204552433230206f7065726174696f6e20646964206e60008201527f6f74207375636365656400000000000000000000000000000000000000000000602082015250565b7f5265656e7472616e637947756172643a207265656e7472616e742063616c6c00600082015250565b7f43726f776473616c653a20776569416d6f756e74206973203000000000000000600082015250565b610efa81610c81565b8114610f0557600080fd5b50565b610f1181610ca5565b8114610f1c57600080fd5b5056fea2646970667358221220fbab11aa414779a7538e12409b9399825f6c0d0f4b89e9b529a6d543fb7b591264736f6c63430008070033",
  "immutableReferences": {},
  "source": "// SPDX-License-Identifier: UNLICENSED\npragma solidity ^0.8.0;\n\nimport \"./Crowdsale.sol\";\nimport \"./KycContract.sol\";\n\ncontract MyTokenSale is Crowdsale {\n\n    KycContract kyc;\n    constructor (\n        uint256 _rate,    // rate in TKNbits\n        address payable _wallet,\n        IERC20 _token,\n        uint256 _softCap,\n        uint256 _hardCap\n    )\n        Crowdsale(1 ether, _wallet, _token, _softCap, _hardCap)\n    {\n\n    }\n\n}",
  "sourcePath": "/Users/israeladelaja/Desktop/tokenization/contracts/MyTokenSale.sol",
  "compiler": {
    "name": "solc",
    "version": "0.8.7+commit.e28d00a7.Emscripten.clang"
  },
  "schemaVersion": "3.4.2",
  "updatedAt": "2021-08-18T13:39:20.654Z",
  "networkType": "ethereum",
  "devdoc": {
    "kind": "dev",
    "methods": {
      "buyTokens(address)": {
        "details": "low level token purchase ***DO NOT OVERRIDE*** This function has a non-reentrancy guard, so it shouldn't be called by another `nonReentrant` function.",
        "params": {
          "beneficiary": "Recipient of the token purchase"
        }
      }
    },
    "version": 1
  },
  "userdoc": {
    "events": {
      "TokensPurchased(address,address,uint256,uint256)": {
        "notice": "Event for token purchase logging"
      }
    },
    "kind": "user",
    "methods": {},
    "version": 1
  }
}